:040000008A15002835
:100006000F3083120313FC004730FD00FD0B092857
:0A001600FC0B0928000000000800A0
:06002000000000000800D2
:0E002600213083120313FD00FD0B1728080084
:10003400FB14FB1F2428FF30F300F200F100F00052
:08004400FA0DF20CFF30080078
:10004C0083120313FB01FA01F9018030F800F10C63
:10005C00F00C031C3A287408F90775080318750F7F
:10006C00FA070318FB0A0310F01F42287408FA075A
:10007C0075080318750FFB07FB0CFA0CF90CF80C40
:10008C00031C2D287B08F3007A08F2007908F10094
:06009C007808F0000800E6
:1000A20083160313C11B5828831286115A28831200
:1000B20086158316411B602883120611622883125B
:1000C20006158316C11A6828831286106A288312BD
:1000D20086148316411A702883120610722883121E
:1000E20006146F1876280616772806128616102030
:1000F20086128316C11980288312861182288312E0
:100102008615831641198828831206118A288312BC
:1001120006158316C118902883128610922883121E
:100122008614831641189828831206109A2883127F
:1001320006146F189E2806169F280612861610208F
:0E01420086126F1CA6280320A7281320080091
:08015000FA1FF2130030080051
:100158007B15FB1FB6280130F300F201F101F00115
:08016800FA0DF20CFF30080053
:0E017000F201F101F001F801F3010030080086
:10017E0083120313FD01F80170080319003474068D
:10018E00FA00FA1BFD09FB01F41FCF28F409F40A4B
:10019E00F01FD328F009F00A70087404FA00FA1B55
:1001AE00F7287408F802F00D700DF80D7408F807B2
:1001BE00F00D0630FC00700DF80D74087018F80282
:1001CE00701CF807F00DFC0BE228701CF8077B186A
:1001DE000529FD1F0034F009F00AF809F80A003469
:1001EE00F41F0229F01BFF287008F800F001F02818
:1001FE00F001F00A0034F009FB0AD828F80A740856
:10020E007802031DF028F801F00AF01FF028FF34E1
:02021E000800D6
:10022000831603130711831212150C30970408006C
:10023000A0017208031D2D297108F2007008F10059
:10024000F001A0157208031D2D297108F200F101BB
:10025000A0112016720803193B292008F302031D80
:10026000031C3F290310F21B4329F00DF10DF20D81
:10027000F30B33293F290130FC00B8204629023016
:0E028000FC00AC2046290430FC00A820080039
:10028E000E3083120313FD00FD0B4B2900000800F6
:0E029E00831603132B088A002A08820008002A
:1002AC0083120313FB017308031D77080319AD298F
:1002BC0072087606FA007708F3077E30031C6A2969
:1002CC00F3020318B0296D29F302031CB329720839
:1002DC00F8007108FC007008FD00F817F617031001
:1002EC00F201F101F0011830A0007D1C872974087F
:1002FC00F00775080318750FF10776080318760FC9
:10030C00F207F20CF10CF00CF80CFC0CFD0C0310C9
:10031C00A00B7B29F21B9729F80DF00DF10DF20DB6
:10032C00F3037B1B701CA929F81FA929F00A0319D8
:10033C00F10A0319F20A031DA929F20CF10CF00CB5
:10034C00F30A0319B029FA1FF2130030B529013052
:10035C00B820B52902301A20B5290430AC20000091
:02036C00080087
:10036E0083120313FA017308031D7A147708031D11
:10037E00FA147A080319032A033A0319CE297A18B4
:10038E00CB29F61F012AFF29F21FFF29012A720825
:10039E008039FA00F21376088039F6137A060319BB
:1003AE00DC297A080319FF29012A77087302031939
:1003BE00E329031CF729FB29760872020319EA299F
:1003CE00031CF729FB29750871020319F129031C77
:1003DE00F729FB29740870020319032A0318FB2955
:1003EE00FA080319012AFF29FA080319FF29012A1D
:1003FE000314080003100800031403150800080076
:06040E00FB15FF300800A1
:10041400831203136F1083163F08C10051206F1419
:020424000800CE
:10042600831603133F08F2007208F100F20A40082F
:10043600F000C00A700884000008F000710884000B
:100446007008800071088400000803192B2A172AF7
:060456003F08F000080061
:10045C00831603131208013EF000F1010318F10A90
:10046C003F08F400F50126200630F2007008F40075
:10047C007108F50072080319482AF50CF40CF513F1
:10048C00FF3E412A0430F1007408F0007108031992
:10049C00532AF00D7010FF3E4D2A30307005F300DA
:1004AC007408F0007508F100F10CF00CF113F10C6C
:1004BC00F00CF113700895000F3097057308970432
:0204CC00080026
:1004CE00831203137408003A031D822A7508003A3A
:1004DE00031D822A7608003A031D822A7708003A05
:1004EE00031D822AFF30F000FF30F1007F30F20052
:1004FE00FF30F3001D2B8312031377080319112B02
:10050E0073080319142B720876068039FA00F21755
:10051E00F617A0017208F8007108FC007008FD00C3
:10052E007408FD027508031C750FFC027608031C87
:10053E00760FF802F801FC01FD01031CAD2A031031
:10054E00F20CF10CF00CF80C0130A0007708F3025D
:10055E00031CB72A7E302007F3070318172BBC2A7B
:10056E007E302007F307031C1A2B1830FA07FD0DF7
:10057E00FC0DF80DF00DF10DF20DA00D7408F0024A
:10058E007508031C750FF1027608031C760FF20234
:10059E00760DA004201CD52A7D14E02A7408F007DD
:1005AE0075080318750FF10776080318760AF20717
:1005BE007D10FA031F307A05031DBE2A7B1B7D1C9E
:1005CE00072B0310F00DF10DF20DA00D7408F002C3
:1005DE007508031C750FF1027608031C760FF202E4
:1005EE00760D20040139FD070318FC0A0319F80AD9
:1005FE00031D072BF80CFC0CFD0CF30A0319172B2B
:10060E00FA1FF8137808F2007C08F1007D08F0005C
:10061E0000301C2B013007221C2B0230B8201C2B63
:0E062E0004301A201C2B0830AC2000000800FD
:10063C0083160313BD01BE013208B9003308BA009A
:10064C003408BB003508BC003C08FF3A031D382BAE
:10065C003B08FF3A031D382B3A08FF3A031D382B91
:10066C003908FF3A031D422B3608BF004030C0004A
:10067C0013220330F000232D0130B700BB1F512B88
:10068C0080303B06F0007008BB00B70A36088400C7
:10069C002D308000B60A0030F0003C06031D602BA4
:1006AC0070083B06031D602B70083A06031D602B77
:1006BC003908003A031D692B3608BF004930C000C9
:1006CC001322F001232D3C08FF3A031D772B3B0826
:1006DC00003A031D772B3A08003A031D772B390893
:1006EC00003A031D812B3608BF004530C000132291
:1006FC003708F000232D0030F4000030F5000030F6
:10070C00F6007F30F7003908F0003A08F1003B089A
:10071C00F2003C08F300B721013003180030F00060
:10072C0070080319B62B83163908F0003A08F1004B
:10073C003B08F2003C08F3000030F4000030F500F8
:10074C002030F6008230F700562170088316B9006D
:10075C007108BA007208BB007308BC00BE03812B81
:10076C0083160030F4000030F5002030F6008230A3
:10077C00F7003908F0003A08F1003B08F2003C0899
:10078C00F300B7210130031C0030F000700803198E
:10079C00EC2B83163908F0003A08F1003B08F20004
:1007AC003C08F300CD30F400CC30F5004C30F600B2
:1007BC007B30F700562170088316B9007108BA0017
:1007CC007208BB007308BC00BE0AB62B8316FF3040
:1007DC003905F800FF303A05F9007F303B05FA0087
:1007EC0000303C05FB007808F4007908F5007A0825
:1007FC00F6007B08F700F40DF50DF60DF70D7410EF
:10080C0000303905F00000303A05F10000303B05AE
:10081C00F200FF303C05F3007008B9007108BA0013
:10082C007208BB007308BC0074083904F00075082A
:10083C003A04F10076083B04F20077083C04F3001C
:10084C007008B9007108BA007208BB007308BC00CC
:10085C007F303C02F0007008B8000130BC0070081A
:10086C00F4003908F0003A08F1003B08F2003C08AB
:10087C00F30074080319492CF00DF10DF20DF30D72
:10088C007010FF3E402C7008B9007108BA00720855
:10089C00BB007308BC003C08303EF00036088400F6
:1008AC0070088000B60A80303E06F0008030013AB5
:1008BC007002031C6A2C8030063AF00080303E0631
:1008CC007002031C6A2C712C360884002E308000B8
:1008DC00B60A0130BD000630B8003808003A0319DA
:1008EC00CF2CBC013908F0003A08F1003B08F200AB
:1008FC003C08F300F00DF10DF20DF30D7010F00D3E
:10090C00F10DF20DF30D70103908F0073A080318C9
:10091C003A0FF1073B0803183B0FF2073C0803188A
:10092C003C0FF3077008B9007108BA007208BB00DD
:10093C007308BC003908F0003A08F1003B08F200DB
:10094C003C08F300F00DF10DF20DF30D7010700872
:10095C00B9007108BA007208BB007308BC003C08EF
:10096C00303EF0003608840070088000B60A3D085E
:10097C00003A031DCD2CBE033E08003A031DCD2CBE
:10098C00360884002E308000B60A0130BD00B80352
:10099C00732CFF30360784000008303A031DD82C26
:1009AC00B603CF2CFF303607840000082E3A031D07
:1009BC00E02CB6033E08003A03191F2D36088400BC
:1009CC0065308000B60A80303E06F0008030003A78
:1009DC0070020318F92C360884002D308000B60AFA
:1009EC003E08003CBE003E08B8008030093AF000DA
:1009FC0080303E0670020318102D0A30F4003808BF
:100A0C00F000BF203030F0078316360884007008E1
:100A1C008000B60A0A30F4003808F000BF207808CD
:100A2C00F0003030F0078316360884007008800020
:0C0A3C00B60A360884008001F0010800B2
:0E0A48001021871083162808BF002E220800F8
:100A5600831203139F01C0309F044409F0007008FD
:100A660083169F051F179F173208F000F00D7010B0
:100A7600F00D7010F00D7010700883129F041F1493
:100A860047211F151F1D492D0000452D1F101E084B
:100A9600F100F00183161E08F0040030F10408008E
:100AA600652D803083160313B200782DC030B20056
:100AB600782D9430B200782DD430B200782D803065
:100AC600B200782D831603133208013A0319542D08
:100AD6003208023A0319592D3208033A03195C2DDC
:100AE6003208043A03195F2D622D3303F0003208F1
:100AF600F0077008B20083126F1470088316C100E5
:100B060051206F1083163408C10051206F1408005D
:100B1600831203137008F8007108F000F101F20166
:100B2600F301FB01FC019630F300FA017008F100B5
:0C0B36007808F000F801F2011821080016
:0C0B42008312031395011712971208008C
:100B4E00B92D803083160313B200CC2DC030B20005
:100B5E00CC2D9430B200CC2DD430B200CC2D8030C0
:100B6E00B200CC2D831603133208013A0319A82DB7
:100B7E003208023A0319AD2D3208033A0319B02D8B
:100B8E003208043A0319B32DB62D3303F0003208A0
:100B9E00F0077008B2007008C10051206F10831664
:100BAE00B50135083407840000080319E72D350810
:100BBE00340784000008BF000A228316B50AD82D18
:060BCE0083126F14080001
:100BD4004F218A110A128000840AAA0A0319AB0A57
:080BE400F003031DEA2D0800D7
:100BEC008316031386120612061086100611861140
:100BFC008312861206128611061186100610032027
:100C0C000320032086140614861610208612032057
:100C1C0086161020861203208616102086120320BA
:100C2C0006108616102086120320861610208612B7
:100C3C00861086158616102086120320861106143F
:100C4C008616102086120610861610208612032097
:100C5C008616102086120614861610208612032083
:100C6C000610861610208612861506158614061494
:0C0C7C0086161020861203206F1408005A
:100C8800FF3083160313AF00FF30B000FF30B10010
:100C9800FF3083129F01C0309F044409F0007008A0
:0E0CA80083169F051F179F1783121F14080045
:100D440021308400463083120313F0005B30831695
:0A0D5400AA000630AB00EA250800F3
:101000008A11A2268A1583160313051487018A11F3
:1010100044268A158A11F6258A15121492147C30FA
:10102000831692008A11A1258A1501308316C1000A
:101030008A1151208A150C308316C1008A11512063
:101040008A1501308316B2000130B3002F30B4008E
:101050008A11A7258A151530FB004B30FC00BE30E5
:10106000FD00FD0B3128FC0B3128FB0B3128000063
:1010700001308316C1008A1151208A150C30831665
:10108000C1008A1151208A1501308316B200013047
:10109000B3002330B4008A11A7258A158316B20144
:1010A0008A112B258A1570088312A1007108A200ED
:1010B0008A118B258A150030F4004030F5001C3071
:1010C000F6008B30F7008A1156218A150030F400A3
:1010D0000030F5000030F6008930F7008A116722F1
:1010E0008A157008E7007108E8007208E9007308C3
:1010F000EA000030F4000030F5002030F6008230C5
:10110000F7008A1167228A157008EB007108EC005D
:101110007208ED007308EE0070088316B2007108C3
:10112000B3007208B4007308B500A030B6008A118D
:101130001E238A150130B2000630B300A030B4007F
:101140008A11A7258A1501308316B2000E30B3002C
:10115000B030B4008A1153258A1501308316B200CD
:101160000F30B3004330B4008A1153258A15C030C4
:101170008316C1008A1151208A1502308316B200ED
:101180000130B3002930B4008A11A7258A15003038
:10119000F4000030F5004830F6008330F7006B08AB
:1011A000F0006C08F1006D08F2006E08F3008A117F
:1011B000B7218A150130031C0030F00070080319B4
:1011C0000B290030F4000030F5007030F600833059
:1011D000F7006B08F0006C08F1006D08F2006E0873
:1011E000F3008A11B7218A15013003180030F0008E
:1011F000700803190B29AC308316BF005730C000AC
:101200008A1113228A153C30A8000030A9008A11E7
:1012100024258A15642A0030F4000030F50070306F
:10122000F6008330F7006B08F0006C08F1006D08E1
:10123000F2006E08F3008A11B7218A150130031CF1
:101240000030F000700803194F290030F40000301E
:10125000F5000C30F6008430F7006B08F0006C08E5
:10126000F1006D08F2006E08F3008A11B7218A15AB
:10127000013003180030F000700803194F29AC301A
:101280008316BF005330C0008A1113228A156430C0
:10129000A8000030A9008A1124258A15642A00308C
:1012A000F4000030F5000C30F6008430F7006B08D5
:1012B000F0006C08F1006D08F2006E08F3008A116E
:1012C000B7218A150130031C0030F00070080319A3
:1012D00092290030F4000030F5002030F600843010
:1012E000F7006B08F0006C08F1006D08F2006E0862
:1012F000F3008A11B7218A15013003180030F0007D
:10130000700803199229AC308316BF004F30C0001B
:101310008A1113228A159630A800A9018A11242562
:101320008A15642A0030F4000030F5002030F60001
:101330008430F7006B08F0006C08F1006D08F200D3
:101340006E08F3008A11B7218A150130031C0030A2
:10135000F00070080319D5290030F4000030F500C2
:101360003430F6008430F7006B08F0006C08F100B0
:101370006D08F2006E08F3008A11B7218A1501305A
:1013800003180030F00070080319D529AC3083161B
:10139000BF006330C0008A1113228A15C830A8002C
:1013A000A9018A1124258A15642A0030F40000302E
:1013B000F5003430F6008430F7006B08F0006C085C
:1013C000F1006D08F2006E08F3008A11B7218A154A
:1013D0000130031C0030F00070080319182A6B0854
:1013E000F4006C08F5006D08F6006E08F700003098
:1013F000F0000030F1004830F2008430F3008A1130
:10140000B7218A150130031C0030F0007008031961
:10141000182AAC308316BF005F30C0008A11132237
:101420008A15EB30A800A9018A1124258A15642A9F
:101430006B08F4006C08F5006D08F6006E08F70004
:101440000030F0000030F1004830F2008430F3004A
:101450008A11B7218A15013003180030F000700896
:101460000319412AAC308316BF005B30C0008A11DB
:1014700013228A15FF30A800A9018A1124258A1594
:10148000642A0030F4000030F5004830F600833064
:10149000F7006B08F0006C08F1006D08F2006E08B0
:1014A000F3008A11B7218A15013003180030F000CB
:1014B00070080319642A8714AC308316BF004B30C0
:1014C000C0008A1113228A1583160230B20006303A
:1014D000B300AC30B4008A11A7258A154E286F2AB4
:040CB60000340034D2
:0C0CBA00543465346D3470343A34003426
:0C0CC6002034523450344D343A340034A1
:100CD2004134753474346F346D346134743469342E
:100CE20063342034413443342034463461346E3426
:020CF2000034CC
:080CF4004E3461344E3400342B
:020CFC000F34B3
:080CFE0049344E344634003441
:040D06003034003451
:080D0A004F3446344634003436
:080D1200343430343034003475
:080D1A0032343034303400346F
:080D2200313430343034003468
:080D2A00383430343034003459
:080D320037343534303400344D
:080D3A0036343034303400344B
:02400E004A2F37
:00000001FF
